:020000040800F2
:100000000050002019510008054F0008074F000854
:10001000094F00080B4F00080D4F000800000000BA
:100020000000000000000000000000000F4F00086A
:10003000134F000800000000174F00081B4F000876
:1000400061510008615100086151000861510008C8
:1000500061510008254F00086151000861510008F6
:1000600061510008615100086151000861510008A8
:100070006151000861510008615100086151000898
:100080006151000861510008615100086151000888
:100090006151000861510008615100086151000878
:1000A0006151000861510008615100086151000868
:1000B0006151000861510008615100086151000858
:1000C0006151000861510008615100086151000848
:1000D00061510008294F0008615100086151000872
:1000E00061510008615100086151000800000000E2
:1000F0000000000000000000000000000000000000
:0C01000000000000000000005FF808F1A3
:10010C0010B5054C237833B9044B13B10448AFF345
:10011C0000800123237010BDF000002000000000BF
:10012C00A473000808B5034B1BB103490348AFF394
:10013C00008008BD00000000F4000020A47300083B
:10014C0000B585B003460A468DF8073013468DF886
:10015C0006309DF80630002B06D001224FF480416A
:10016C00274805F07BFB05E000224FF48041244832
:10017C0005F074FB00224FF48051214805F06EFB12
:10018C0000238DF80F3026E000224FF400511C485C
:10019C0005F064FB9DF90730002B06DA01224FF4C1
:1001AC000041174805F05AFB05E000224FF40041CE
:1001BC00134805F053FB01224FF40051104805F091
:1001CC004DFB9DF807305B008DF807309DF80F3024
:1001DC0001338DF80F309DF80F30072BD4D9012245
:1001EC004FF48051064805F039FB01224FF4804151
:1001FC00034805F033FB00BF05B05DF804FB00BFFE
:10020C00000C014000B583B003460A468DF8073058
:10021C0013468DF806309DF80630503BDBB20021BA
:10022C001846FFF78DFF9DF807301B09DBB243F032
:10023C001003DBB200211846FFF782FF9DF907304F
:10024C0003F00E035BB243F001035BB2DBB200219F
:10025C001846FFF775FF00BF03B05DF804FB00B54F
:10026C0083B000238DF8073025E09DF80730503B14
:10027C00DBB200211846FFF763FF00210220FFF7D5
:10028C005FFF00211020FFF75BFF00238DF8063085
:10029C0008E001210020FFF753FF9DF806300133E1
:1002AC008DF806309DF90630002BF2DA9DF80730F8
:1002BC0001338DF807309DF80730072BD5D900BFD7
:1002CC0000BF03B05DF804FB00B587B06C4B9B69B5
:1002DC006B4A43F008039361694B9B6903F0080375
:1002EC000193019B4FF48053029301230393012349
:1002FC0004930323059302AB1946624805F02EF9CB
:10030C004FF48043029301230393012304930323AB
:10031C00059302AB19465B4805F020F94FF40053E6
:10032C00029301230393012304930323059302AB4C
:10033C001946544805F012F94FF400430293012377
:10034C000393012304930323059302AB19464D48F1
:10035C0005F004F901224FF480514A4805F07EFA69
:10036C0001224FF48041474805F078FA01224FF4FE
:10037C000051444805F072FA01224FF40041414803
:10038C0005F06CFA0021AE20FFF7DAFE0021022006
:10039C00FFF7D6FE00211020FFF7D2FE00214020EF
:1003AC00FFF7CEFE00218120FFF7CAFE0021CF20EF
:1003BC00FFF7C6FE0021A120FFF7C2FE0021C820D6
:1003CC00FFF7BEFE0021A620FFF7BAFE0021A820F1
:1003DC00FFF7B6FE00213F20FFF7B2FE0021D3202D
:1003EC00FFF7AEFE00210020FFF7AAFE0021D5206A
:1003FC00FFF7A6FE00218020FFF7A2FE0021D920E6
:10040C00FFF79EFE0021F120FFF79AFE0021DA2073
:10041C00FFF796FE00211220FFF792FE0021DB2051
:10042C00FFF78EFE00214020FFF78AFE00212020DE
:10043C00FFF786FE00210220FFF782FE00218D20AF
:10044C00FFF77EFE00211420FFF77AFE0021A42086
:10045C00FFF776FE0021A620FFF772FE0021AF20E9
:10046C00FFF76EFE0021AF20FFF76AFEFFF7F7FEE5
:10047C0000210020FFF7C6FE00BF07B05DF804FBAB
:10048C0000100240000C014084B00190019B1B78CD
:10049C000393019B01331B781B02039A13430393B1
:1004AC00019B02331B781B04039A13430393039B96
:1004BC00184604B07047000000B589B00190009157
:1004CC000023079350E0079A13465B001344009AED
:1004DC0013441846FFF7D8FF0590059A264B134096
:1004EC000493059B5A08244B1340049A1344049319
:1004FC00059B9A08204B1340049A13440493002341
:10050C0006932BE0069A13465B0013445B001A46D5
:10051C00049BD3401BB203F00703ADF80E30069AD0
:10052C0013465B0013445B000333049A22FA03F373
:10053C001BB203F00703ADF80C30BDF80E20BDF86C
:10054C000C30D31A99B2079B9A00069B1A4409B235
:10055C00019B23F81210069B01330693069B032B79
:10056C00D0D9079B01330793079B3F2BABD900BF17
:10057C0000BF09B05DF804FB4992240000B583B0BC
:10058C000190009100990198FFF796FF00BF03B00E
:10059C005DF804FBF0B486B001904FF000004FF012
:1005AC000001CDE902010021059123E00198059994
:1005BC0001440978C9B200200C4605460599C900CA
:1005CC00A1F1200CC1F1200005FA01F304FA0CFC96
:1005DC0043EA0C0324FA00F0034304FA01F2DDE9C8
:1005EC00020140EA020641EA0307CDE902670599D8
:1005FC000131059105990729D8D9DDE90223104667
:10060C00194606B0F0BC704770B487B00390CDE9C2
:10061C0000230023059319E0059BD900DDE9002395
:10062C00C1F12006A1F1200022FA01F403FA06F62A
:10063C00344323FA00F0044323FA01F5039A059B93
:10064C001344E2B21A70059B01330593059B072BEB
:10065C00E2D900BF00BF07B070BC70472DE9F00FA6
:10066C00ADF5386D0DF53863A3F5F67318600DF51F
:10067C003863A3F5F6731B68D3E900230DF53761D6
:10068C00C1E900230DF53863A3F5F6731B68D3E9B4
:10069C0002230DF66831C1E900230DF53863A3F58B
:1006AC00F6731B68D3E904230DF53661C1E9002309
:1006BC000DF53863A3F5F6731B68D3E906230DF625
:1006CC005831C1E900230DF53863A3F5F6731B68A7
:1006DC00D3E908230DF53561C1E900230DF5386325
:1006EC00A3F5F6731B68D3E90A230DF64831C1E96B
:1006FC0000230DF53863A3F5F6731B68D3E90C23BF
:10070C000DF53461C1E900230DF53863A3F5F673DB
:10071C001B68D3E90E230DF63831C1E900230DF522
:10072C003863A3F5F6731B68D3E910230DF5336119
:10073C00C1E900230DF53863A3F5F6731B68D3E903
:10074C0012230DF62831C1E900230DF53863A3F50A
:10075C00F6731B68D3E914230DF53261C1E900234C
:10076C000DF53863A3F5F6731B68D3E916230DF664
:10077C001831C1E900230DF53863A3F5F6731B6836
:10078C00D3E918230DF53161C1E900230DF5386368
:10079C00A3F5F6731B68D3E91A230DF60831C1E9EA
:1007AC0000230DF53863A3F5F6731B68D3E91C23FE
:1007BC000DF53061C1E900230DF53863A3F5F6732F
:1007CC001B68D3E91E230DF6F821C1E900230DF5B2
:1007DC003863A3F5F6731B68D3E920230DF52F615D
:1007EC00C1E900230DF53863A3F5F6731B68D3E953
:1007FC0022230DF6E821C1E900230DF53863A3F59A
:10080C00F6731B68D3E924230DF52E61C1E900238F
:10081C000DF53863A3F5F6731B68D3E926230DF6A3
:10082C00D821C1E900230DF53863A3F5F6731B68D5
:10083C00D3E928230DF52D61C1E900230DF53863AB
:10084C00A3F5F6731B68D3E92A230DF6C821C1E979
:10085C0000230DF53863A3F5F6731B68D3E92C233D
:10086C000DF52C61C1E900230DF53863A3F5F67382
:10087C001B68D3E92E230DF6B821C1E900230DF531
:10088C003863A3F5F6731B68D3E930230DF52B61A0
:10089C00C1E900230023CDF87C3B02F067BE0DF5C7
:1008AC003763D3E900010DF64833D3E9002380EA1E
:1008BC00020CCDF800C04B4001930DF53263D3E927
:1008CC000023DDE9000184468CEA020CCDF808C057
:1008DC004B4003930DF6F823D3E90023DDE9020125
:1008EC0084468CEA020CCDF810C04B4005930DF5F4
:1008FC002D63D3E90023DDE90401844682EA0C0C64
:10090C00CDF840C44B40CDF844340DF58863D3E9A1
:10091C0000230DF6A821C1E900230DF66833D3E9B5
:10092C0000010DF53463D3E9002380EA020CCDF805
:10093C0018C04B4007930DF61833D3E90023DDE9BB
:10094C00060184468CEA020CCDF820C04B4009937A
:10095C000DF52F63D3E90023DDE9080184468CEA09
:10096C00020CCDF828C04B400B930DF6C823D3E9ED
:10097C000023DDE90A01844682EA0C0CCDF848C458
:10098C004B40CDF84C340DF58963D3E900230DF5BC
:10099C002A61C1E900230DF53663D3E900010DF698
:1009AC003833D3E9002380EA020CCDF830C04B4039
:1009BC000D930DF53163D3E90023DDE90C01844679
:1009CC008CEA020CCDF838C04B400F930DF6E8239F
:1009DC00D3E90023DDE90E0184468CEA020CCDF844
:1009EC0040C04B4011930DF52C63D3E90023DDE996
:1009FC001001844682EA0C0CCDF850C44B40CDF863
:100A0C0054340DF58A63D3E900230DF69821C1E91E
:100A1C0000230DF65833D3E900010DF53363D3E908
:100A2C00002380EA020CCDF848C04B4013930DF61E
:100A3C000833D3E90023DDE9120184468CEA020C69
:100A4C00CDF850C04B4015930DF52E63D3E9002320
:100A5C00DDE9140184468CEA020CCDF858C04B40F9
:100A6C0017930DF6B823D3E90023DDE9160184466C
:100A7C0082EA0C0CCDF858C44B40CDF85C340DF523
:100A8C008B63D3E900230DF52961C1E900230DF532
:100A9C003563D3E900010DF62833D3E9002380EA4E
:100AAC00020CCDF860C04B4019930DF53063D3E9BF
:100ABC000023DDE9180184468CEA020CCDF868C0ED
:100ACC004B401B930DF6D823D3E90023DDE91A0123
:100ADC0084468CEA020CCDF870C04B401D930DF58A
:100AEC002B63D3E90023DDE91C01844682EA0C0C5C
:100AFC00CDF860C44B40CDF864340DF58C63D3E96C
:100B0C0000230DF68821C1E90023DDF8A03ADA0FA5
:100B1C00DDF8A43A5B0013431F93DDF8A43ADA0F17
:100B2C00DDF8A03A5B0013431E930DF68823D3E93E
:100B3C000023DDE91E01844682EA0C0CCDF868C462
:100B4C004B40CDF86C340DF58D63D3E900230DF5D6
:100B5C002861C1E90023DDF8983ADA0FDDF89C3AF8
:100B6C005B0013432193DDF89C3ADA0FDDF8983AD9
:100B7C005B00134320930DF6A823D3E90023DDE992
:100B8C002001844682EA0C0CCDF870C44B40CDF8A1
:100B9C0074340DF58E63D3E900230DF67821C1E989
:100BAC000023DDF8903ADA0FDDF8943A5B0013433A
:100BBC002393DDF8943ADA0FDDF8903A5B00134397
:100BCC0022930DF52A63D3E90023DDE92201844643
:100BDC0082EA0C0CCDF878C44B40CDF87C340DF582
:100BEC008F63D3E900230DF52761C1E90023DDF8FC
:100BFC00883ADA0FDDF88C3A5B0013432593DDF865
:100C0C008C3ADA0FDDF8883A5B00134324930DF627
:100C1C009823D3E90023DDE92401844682EA0C0CF5
:100C2C00CDF880C44B40CDF884340DF59063D3E9F6
:100C3C0000230DF66821C1E90023DDF8A83ADA0F8C
:100C4C00DDF8AC3A5B0013432793DDF8AC3ADA0FCE
:100C5C00DDF8A83A5B00134326930DF52963D3E91D
:100C6C000023DDE92601844682EA0C0CCDF888C409
:100C7C004B40CDF88C340DF59163D3E900230DF581
:100C8C002661C1E900230DF53763D3E900010DF5A9
:100C9C002863D3E9002380EA020CCDF890C44B40C2
:100CAC00CDF894340DF59263D3E900230DF537613B
:100CBC00C1E900230DF53763D3E900230DF6A82114
:100CCC00C1E900230DF53463D3E900010DF6782357
:100CDC00D3E9002380EA020CCDF898C44B40CDF840
:100CEC009C340DF59363D3E900230DF53461C1E910
:100CFC000023DDF8443B1A03DDF8403B1B0D134386
:100D0C00CDF8A034DDF8403B1A03DDF8443B1B0D55
:100D1C001343CDF8A4340DF59463D3E900230DF5FA
:100D2C002A61C1E900230DF53163D3E900010DF50A
:100D3C002763D3E9002380EA020CCDF8A8C44B400A
:100D4C00CDF8AC340DF59563D3E900230DF5316185
:100D5C00C1E90023DDF8143BDA02DDF8103B5B0D32
:100D6C001343CDF8B034DDF8103BDA02DDF8143B58
:100D7C005B0D1343CDF8B4340DF59663D3E9002322
:100D8C000DF69821C1E900230DF52E63D3E900017E
:100D9C000DF66823D3E9002380EA020CCDF8B8C421
:100DAC004B40CDF8BC340DF59763D3E900230DF51A
:100DBC002E61C1E90023DDF8E03ADA0ADDF8E43A05
:100DCC005B051343CDF8C434DDF8E43ADA0ADDF8F8
:100DDC00E03A5B051343CDF8C0340DF59863D3E9C5
:100DEC0000230DF52961C1E900230DF52B63D3E92F
:100DFC0000010DF52663D3E9002380EA020CCDF83F
:100E0C00C8C44B40CDF8CC340DF59963D3E900231D
:100E1C000DF52B61C1E90023DDF8B03A9A0CDDF831
:100E2C00B43A9B031343CDF8D434DDF8B43A9A0C9E
:100E3C00DDF8B03A9B031343CDF8D0340DF59A632B
:100E4C00D3E900230DF68821C1E900230DF52A63AF
:100E5C00D3E90023D1432891DB4329930DF6982342
:100E6C00D3E90023DDE9280184460CEA020CCDF815
:100E7C00A8C00B402B930DF6A823D3E90023DDE982
:100E8C002A01844682EA0C0CCDF8D8C44B40CDF82C
:100E9C00DC340DF59B63D3E900230DF65821C1E931
:100EAC000023C14ADDF87C3BDB001344D3E900018D
:100EBC000DF65823D3E9002382EA000CCDF8E0C4E8
:100ECC004B40CDF8E4340DF59C63D3E900230DF6CB
:100EDC005821C1E900230DF69823D3E90023D1430F
:100EEC002C91DB432D930DF52963D3E90023DDE928
:100EFC002C0184460CEA020CCDF8B8C00B402F93A1
:100F0C000DF52A63D3E90023DDE92E01844682EA3C
:100F1C000C0CCDF8E8C44B40CDF8EC340DF59D63CA
:100F2C00D3E900230DF52561C1E900230DF52963F3
:100F3C00D3E90023D1433091DB4331930DF6882361
:100F4C00D3E90023DDE9300184460CEA020CCDF82C
:100F5C00C8C00B4033930DF69823D3E90023DDE989
:100F6C003201844682EA0C0CCDF8F0C44B40CDF82B
:100F7C00F4340DF59E63D3E900230DF64821C1E945
:100F8C0000230DF68823D3E90023D1433491DB43AE
:100F9C0035930DF6A823D3E90023DDE9340184460B
:100FAC000CEA020CCDF8D8C00B4037930DF5296331
:100FBC00D3E90023DDE93601844682EA0C0CCDF836
:100FCC00F8C44B40CDF8FC340DF59F63D3E90023F6
:100FDC000DF52461C1E900230DF6A823D3E9002304
:100FEC00D1433891DB4339930DF52A63D3E90023C0
:100FFC00DDE9380184460CEA020CCDF8E8C00B4060
:10100C003B930DF68823D3E90023DDE93A018446AE
:10101C0082EA0C0CCDF800C54B40CDF804350DF52B
:10102C00A063D3E900230DF63821C1E900230DF6A6
:10103C005833D3E900010DF66823D3E9002380EA85
:10104C00020CCDF808C54B40CDF80C350DF5A1635D
:10105C00D3E900230DF65831C1E90023DDF8583BE4
:10106C001A09DDF85C3B1B071343CDF81435DDF88A
:10107C005C3B1A09DDF8583B1B071343CDF81035C0
:10108C000DF5A263D3E900230DF6A821C1E90023D5
:10109C000DF62833D3E900010DF52663D3E90023BF
:1010AC0080EA020CCDF818C54B40CDF81C350DF577
:1010BC00A363D3E900230DF62831C1E90023DDF841
:1010CC00283B1A0BDDF82C3B1B051343CDF82435BC
:1010DC00DDF82C3B1A0BDDF8283B1B051343CDF830
:1010EC0020350DF5A463D3E900230DF52A61C1E980
:1010FC0000230DF53263D3E900010DF52863D3E924
:10110C00002380EA020CCDF828C54B40CDF82C35D5
:10111C000DF5A563D3E900230DF53261C1E9002378
:10112C00DDF8203B5A0FDDF8243BDB001343CDF8F0
:10113C003435DDF8243B5A0FDDF8203BDB0013433C
:10114C00CDF830350DF5A663D3E900230DF69821C3
:10115C00C1E900230DF52F63D3E900010DF67823C7
:10116C00D3E9002380EA020CCDF838C54B40CDF80A
:10117C003C350DF5A763D3E900230DF52F61C1E9CB
:10118C000023DDF8F43A5A03DDF8F03ADB0C134394
:10119C00CDF84035DDF8F03A5A03DDF8F43ADB0CC3
:1011AC001343CDF8443501E0907500080DF5A863A4
:1011BC00D3E900230DF52961C1E900230DF52C635A
:1011CC00D3E900010DF52763D3E9002380EA020C73
:1011DC00CDF848C54B40CDF84C350DF5A963D3E996
:1011EC0000230DF52C61C1E90023DDF8C43A5A0740
:1011FC00DDF8C03ADB081343CDF85035DDF8C03AC2
:10120C005A07DDF8C43ADB081343CDF854350DF515
:10121C00AA63D3E900230DF68821C1E900230DF55B
:10122C002A63D3E90023D1433C91DB433D930DF674
:10123C009823D3E90023DDE93C0184460CEA020C37
:10124C00CDF8F8C00B403F930DF6A823D3E900234B
:10125C00DDE93E01844682EA0C0CCDF858C54B40C2
:10126C00CDF85C350DF5AB63D3E900230DF52361A7
:10127C00C1E900230DF69823D3E90023D143409113
:10128C00DB4341930DF52963D3E90023DDE94001EC
:10129C0084460CEA020CCDF808C10B4043930DF5C3
:1012AC002A63D3E90023DDE94201844682EA0C0C6F
:1012BC00CDF860C54B40CDF864350DF5AC63D3E982
:1012CC0000230DF62821C1E900230DF52963D3E98C
:1012DC000023D1434491DB4345930DF68823D3E996
:1012EC000023DDE9440184460CEA020CCDF818C158
:1012FC000B4047930DF69823D3E90023DDE9460113
:10130C00844682EA0C0CCDF868C54B40CDF86C35A0
:10131C000DF5AD63D3E900230DF52261C1E900237E
:10132C000DF68823D3E90023D1434891DB4349933D
:10133C000DF6A823D3E90023DDE9480184460CEA25
:10134C00020CCDF828C10B404B930DF52963D3E962
:10135C000023DDE94A01844682EA0C0CCDF870C505
:10136C004B40CDF874350DF5AE63D3E900230DF683
:10137C001821C1E900230DF6A823D3E90023D1439A
:10138C004C91DB434D930DF52A63D3E90023DDE942
:10139C004C0184460CEA020CCDF838C10B404F933B
:1013AC000DF68823D3E90023DDE94E01844682EA59
:1013BC000C0CCDF878C54B40CDF87C350DF5AF63F2
:1013CC00D3E900230DF52161C1E900230DF6683343
:1013DC00D3E900010DF67823D3E9002380EA020C4F
:1013EC00CDF880C54B40CDF884350DF5B063D3E90D
:1013FC0000230DF66831C1E90023DDF8683BDA0FF4
:10140C00DDF86C3B5B001343CDF88C35DDF86C3BA1
:10141C00DA0FDDF8683B5B001343CDF888350DF52A
:10142C00B163D3E900230DF6A821C1E900230DF621
:10143C003833D3E900010DF52763D3E9002380EAA3
:10144C00020CCDF890C54B40CDF894350DF5B26338
:10145C00D3E900230DF63831C1E90023DDF8383B20
:10146C009A0EDDF83C3B9B011343CDF89C35DDF81F
:10147C003C3B9A0EDDF8383B9B011343CDF8983575
:10148C000DF5B363D3E900230DF52A61C1E90023FF
:10149C000DF60833D3E900010DF66823D3E90023D8
:1014AC0080EA020CCDF8A0C54B40CDF8A4350DF563
:1014BC00B463D3E900230DF60831C1E90023DDF84C
:1014CC00083BDA09DDF80C3B5B061343CDF8AC3571
:1014DC00DDF80C3BDA09DDF8083B5B061343CDF86D
:1014EC00A8350DF5B563D3E900230DF69821C1E9B4
:1014FC0000230DF6D823D3E900010DF52663D3E9BB
:10150C00002380EA020CCDF8B0C54B40CDF8B435C1
:10151C000DF5B663D3E900230DF6D821C1E90023FC
:10152C00DDF8D83A1A0EDDF8DC3A1B021343CDF87D
:10153C00BC35DDF8DC3A1A0EDDF8D83A1B02134341
:10154C00CDF8B8350DF5B763D3E900230DF5296156
:10155C00C1E900230DF52D63D3E900010DF52863D6
:10156C00D3E9002380EA020CCDF8C0C54B40CDF87E
:10157C00C4350DF5B863D3E900230DF52D61C1E930
:10158C000023DDF8D03A9A0BDDF8D43A9B041343D0
:10159C00CDF8CC35DDF8D43A9A0BDDF8D03A9B0473
:1015AC001343CDF8C8350DF5B963D3E900230DF617
:1015BC008821C1E900230DF52A63D3E90023D14327
:1015CC005091DB4351930DF69823D3E90023DDE9C9
:1015DC00500184460CEA020CCDF848C10B405393E1
:1015EC000DF6A823D3E90023DDE95201844682EAF3
:1015FC000C0CCDF8D0C54B40CDF8D4350DF5BA63F5
:10160C00D3E900230DF60821C1E900230DF6982338
:10161C00D3E90023D1435491DB4355930DF5296352
:10162C00D3E90023DDE9540184460CEA020CCDF821
:10163C0058C10B4057930DF52A63D3E90023DDE91C
:10164C005601844682EA0C0CCDF8D8C54B40CDF837
:10165C00DC350DF5BB63D3E900230DF52061C1E941
:10166C0000230DF52963D3E90023D1435891DB43C3
:10167C0059930DF68823D3E90023DDE958018446FC
:10168C000CEA020CCDF868C10B405B930DF6982365
:10169C00D3E90023DDE95A01844682EA0C0CCDF82B
:1016AC00E0C54B40CDF8E4350DF5BC63D3E9002320
:1016BC000DF6F811C1E900230DF68823D3E90023B8
:1016CC00D1435C91DB435D930DF6A823D3E9002352
:1016DC00DDE95C0184460CEA020CCDF878C10B40C4
:1016EC005F930DF52963D3E90023DDE95E018446A0
:1016FC0082EA0C0CCDF8E8C54B40CDF8EC350DF575
:10170C00BD63D3E900230DF51F61C1E900230DF67C
:10171C00A823D3E90023D1436091DB4361930DF5FA
:10172C002A63D3E90023DDE9600184460CEA020C4C
:10173C00CDF888C10B4063930DF68823D3E90023C1
:10174C00DDE96201844682EA0C0CCDF8F0C54B4011
:10175C00CDF8F4350DF5BE63D3E900230DF6E81191
:10176C00C1E900230DF53563D3E900010DF52663BE
:10177C00D3E9002380EA020CCDF8F8C54B40CDF834
:10178C00FC350DF5BF63D3E900230DF53561C1E9D7
:10179C000023DDF8503B5A09DDF8543BDB061343BC
:1017AC00CDF80436DDF8543B5A09DDF8503BDB0626
:1017BC001343CDF800360DF5C063D3E900230DF6C5
:1017CC00A821C1E900230DF64833D3E900010DF53A
:1017DC002863D3E9002380EA020CCDF808C64B40FD
:1017EC00CDF80C360DF5C163D3E900230DF6483165
:1017FC00C1E90023DDF84C3B1A01DDF8483B1B0F17
:10180C001343CDF81036DDF8483B1A01DDF84C3B9C
:10181C001B0F1343CDF814360DF5C263D3E9002327
:10182C000DF52A61C1E900230DF61833D3E9000147
:10183C000DF67823D3E9002380EA020CCDF818C604
:10184C004B40CDF81C360DF5C363D3E900230DF6E0
:10185C001831C1E90023DDF8183B9A0DDDF81C3B6B
:10186C009B021343CDF82436DDF81C3B9A0DDDF8B2
:10187C00183B9B021343CDF820360DF5C463D3E916
:10188C0000230DF69821C1E900230DF6E823D3E9D6
:10189C0000010DF52763D3E9002380EA020CCDF893
:1018AC0028C64B40CDF82C360DF5C563D3E9002383
:1018BC000DF6E821C1E90023DDF8E83A5A0CDDF811
:1018CC00EC3ADB031343CDF83436DDF8EC3A5A0C22
:1018DC00DDF8E83ADB031343CDF830360DF5C6637B
:1018EC00D3E900230DF52961C1E900230DF6B823D6
:1018FC00D3E900010DF66823D3E9002380EA020C3A
:10190C00CDF838C64B40CDF83C360DF5C763D3E95E
:10191C0000230DF6B821C1E90023DDF8BC3A1A0604
:10192C00DDF8B83A1B0A1343CDF84036DDF8B83A67
:10193C001A06DDF8BC3A1B0A1343CDF844360DF5F4
:10194C00C863D3E900230DF68821C1E900230DF506
:10195C002A63D3E90023D1436491DB4365930DF6ED
:10196C009823D3E90023DDE9640184460CEA020CD8
:10197C00CDF898C10B4067930DF6A823D3E900234B
:10198C00DDE96601844682EA0C0CCDF848C64B4072
:10199C00CDF84C360DF5C963D3E900230DF51E6166
:1019AC00C1E900230DF69823D3E90023D1436891B4
:1019BC00DB4369930DF52963D3E90023DDE9680165
:1019CC0084460CEA020CCDF8A8C10B406B930DF5C4
:1019DC002A63D3E90023DDE96A01844682EA0C0C10
:1019EC00CDF850C64B40CDF854360DF5CA63D3E94B
:1019FC0000230DF6D811C1E900230DF52963D3E9B5
:101A0C000023D1436C91DB436D930DF68823D3E90E
:101A1C000023DDE96C0184460CEA020CCDF8B8C158
:101A2C000B406F930DF69823D3E90023DDE96E018B
:101A3C00844682EA0C0CCDF858C64B40CDF85C3687
:101A4C000DF5CB63D3E900230DF51D61C1E900232E
:101A5C000DF68823D3E90023D1437091DB437193B6
:101A6C000DF6A823D3E90023DDE9700184460CEAC6
:101A7C00020CCDF8C8C10B4073930DF52963D3E963
:101A8C000023DDE97201844682EA0C0CCDF860C6B5
:101A9C004B40CDF864360DF5CC63D3E900230DF63D
:101AAC00C811C1E900230DF6A823D3E90023D143C3
:101ABC007491DB4375930DF52A63D3E90023DDE9BB
:101ACC00740184460CEA020CCDF8D8C10B40779314
:101ADC000DF68823D3E90023DDE97601844682EAFA
:101AEC000C0CCDF868C64B40CDF86C360DF5CD63BB
:101AFC00D3E900230DF51C61C1E900230DF5366314
:101B0C00D3E900010DF52763D3E9002380EA020C29
:101B1C00CDF870C64B40CDF874360DF5CE63D3E9D5
:101B2C0000230DF53661C1E90023DDF8643B9A070B
:101B3C00DDF8603B9B081343CDF87836DDF8603B4D
:101B4C009A07DDF8643B9B081343CDF87C360DF502
:101B5C00CF63D3E900230DF6A821C1E900230DF5CD
:101B6C003363D3E900010DF66823D3E9002380EA3F
:101B7C00020CCDF880C64B40CDF884360DF5D06301
:101B8C00D3E900230DF53361C1E90023DDF8343BC3
:101B9C00DA05DDF8303B5B0A1343CDF88836DDF807
:101BAC00303BDA05DDF8343B5B0A1343CDF88C3659
:101BBC000DF5D163D3E900230DF52A61C1E90023AA
:101BCC000DF53063D3E900010DF52663D3E900234D
:101BDC0080EA020CCDF890C64B40CDF894360DF54A
:101BEC00D263D3E900230DF53061C1E90023DDF8A0
:101BFC00043BDA01DDF8003B5B0E1343CDF898365D
:101C0C00DDF8003BDA01DDF8043B5B0E1343CDF845
:101C1C009C360DF5D363D3E900230DF69821C1E969
:101C2C0000230DF6F823D3E900010DF52863D3E961
:101C3C00002380EA020CCDF8A0C64B40CDF8A436A8
:101C4C000DF5D463D3E900230DF6F821C1E9002387
:101C5C00DDF8FC3A5A02DDF8F83ADB0D1343CDF807
:101C6C00A836DDF8F83A5A02DDF8FC3ADB0D1343DE
:101C7C00CDF8AC360DF5D563D3E900230DF529610C
:101C8C00C1E900230DF6C823D3E900010DF6782332
:101C9C00D3E9002380EA020CCDF8B0C64B40CDF856
:101CAC00B4360DF5D663D3E900230DF6C821C1E98E
:101CBC000023DDF8C83A9A0FDDF8CC3A9B001343A9
:101CCC00CDF8BC36DDF8CC3A9A0FDDF8C83A9B005B
:101CDC001343CDF8B8360DF5D763D3E900230DF6D1
:101CEC008821C1E900230DF52A63D3E90023D143F0
:101CFC007891DB4379930DF69823D3E90023DDE942
:101D0C00780184460CEA020CCDF8E8C10B407B93B9
:101D1C000DF6A823D3E90023DDE97A01844682EA93
:101D2C000C0CCDF8C0C64B40CDF8C4360DF5D863BD
:101D3C00D3E900230DF6B811C1E900230DF6982361
:101D4C00D3E90023D1437C91DB437D930DF52963CB
:101D5C00D3E90023DDE97C0184460CEA020CCDF8C2
:101D6C00F8C10B407F930DF52A63D3E90023DDE91D
:101D7C007E01844682EA0C0CCDF8C8C64B40CDF8E7
:101D8C00CC360DF5D963D3E900230DF51B61C1E900
:101D9C0000230DF52963D3E90023D1438091DB4364
:101DAC0081930DF68823D3E90023DDE98001844675
:101DBC000CEA020CCDF808C20B4083930DF6982365
:101DCC00D3E90023DDE98201844682EA0C0CCDF8CC
:101DDC00D0C64B40CDF8D4360DF5DA63D3E90023E9
:101DEC000DF6A811C1E900230DF68823D3E90023D1
:101DFC00D1438491DB4385930DF6A823D3E90023CB
:101E0C00DDE9840184460CEA020CCDF818C20B40C3
:101E1C0087930DF52963D3E90023DDE98601844618
:101E2C0082EA0C0CCDF8D8C64B40CDF8DC360DF55B
:101E3C00DB63D3E900230DF51A61C1E900230DF62C
:101E4C00A823D3E90023D1438891DB4389930DF573
:101E5C002A63D3E90023DDE9880184460CEA020CED
:101E6C00CDF828C20B408B930DF68823D3E90023C1
:101E7C00DDE98A01844682EA0C0CCDF8E0C64B40C1
:101E8C00CDF8E4360DF5DC63D3E900230DF698119B
:101E9C00C1E900230DF65823D3E900010DF52363A6
:101EAC00D3E9002380EA020CCDF830C24B408D936D
:101EBC000DF60823D3E90023DDE98C0184468CEA76
:101ECC00020CCDF838C24B408F930DF51E63D3E94D
:101EDC000023DDE98E0184468CEA020CCDF840C269
:101EEC004B4091930DF6B813D3E90023DDE9900133
:101EFC00844682EA0C0CCDF8E8C64B40CDF8EC36A3
:101F0C000DF5DD63D3E900230DF6A821C1E900230B
:101F1C000DF52563D3E900010DF62823D3E9002341
:101F2C0080EA020CCDF848C24B4093930DF5206328
:101F3C00D3E90023DDE9920184468CEA020CCDF84A
:101F4C0050C24B4095930DF6D813D3E90023DDE92D
:101F5C00940184468CEA020CCDF858C24B409793FE
:101F6C000DF51B63D3E90023DDE99601844682EA73
:101F7C000C0CCDF8F0C64B40CDF8F4360DF5DE6305
:101F8C00D3E900230DF52A61C1E900230DF648239E
:101F9C00D3E900010DF52263D3E9002380EA020C9A
:101FAC00CDF860C24B4099930DF6F813D3E900239A
:101FBC00DDE9980184468CEA020CCDF868C24B40EE
:101FCC009B930DF51D63D3E90023DDE99A0184464B
:101FDC008CEA020CCDF870C24B409D930DF6A81301
:101FEC00D3E90023DDE99C01844682EA0C0CCDF890
:101FFC00F8C64B40CDF8FC360DF5DF63D3E9002372
:10200C000DF69821C1E900230DF52463D3E90001F5
:10201C000DF61823D3E9002380EA020CCDF878C220
:10202C004B409F930DF51F63D3E90023DDE99E011F
:10203C0084468CEA020CCDF880C24B40A1930DF67D
:10204C00C813D3E90023DDE9A00184468CEA020C15
:10205C00CDF888C24B40A3930DF51A63D3E9002346
:10206C00DDE9A201844682EA0C0CCDF800C74B4096
:10207C00CDF804370DF5E063D3E900230DF52961A4
:10208C00C1E900230DF63823D3E900010DF52163D6
:10209C00D3E9002380EA020CCDF890C24B40A59303
:1020AC000DF6E813D3E90023DDE9A40184468CEA9C
:1020BC00020CCDF898C24B40A7930DF51C63D3E9E5
:1020CC000023DDE9A60184468CEA020CCDF8A0C2FF
:1020DC004B40A9930DF69813D3E90023DDE9A80131
:1020EC00844682EA0C0CCDF808C74B40CDF80C376F
:1020FC000DF5E163D3E900230DF68821C1E9002336
:10210C00DDF8A03ADA0FDDF8A43A5B001343AB9389
:10211C00DDF8A43ADA0FDDF8A03A5B001343AA937A
:10212C000DF68823D3E90023DDE9AA01844682EA6F
:10213C000C0CCDF810C74B40CDF814370DF5E263FD
:10214C00D3E900230DF52861C1E90023DDF8983AA5
:10215C00DA0FDDF89C3A5B001343AD93DDF89C3A43
:10216C00DA0FDDF8983A5B001343AC930DF6A82315
:10217C00D3E90023DDE9AC01844682EA0C0CCDF8EE
:10218C0018C74B40CDF81C370DF5E363D3E900239A
:10219C000DF67821C1E90023DDF8903ADA0FDDF86D
:1021AC00943A5B001343AF93DDF8943ADA0FDDF801
:1021BC00903A5B001343AE930DF52A63D3E90023E9
:1021CC00DDE9AE01844682EA0C0CCDF820C74B4009
:1021DC00CDF824370DF5E463D3E900230DF5276121
:1021EC00C1E90023DDF8883ADA0FDDF88C3A5B00A0
:1021FC001343B193DDF88C3ADA0FDDF8883A5B00C3
:10220C001343B0930DF69823D3E90023DDE9B00115
:10221C00844682EA0C0CCDF828C74B40CDF82C37FD
:10222C000DF5E563D3E900230DF66821C1E9002320
:10223C00DDF8A83ADA0FDDF8AC3A5B001343B39340
:10224C00DDF8AC3ADA0FDDF8A83A5B001343B29331
:10225C000DF52963D3E90023DDE9B201844682EA56
:10226C000C0CCDF830C74B40CDF834370DF5E66388
:10227C00D3E900230DF52661C1E900230DF658239F
:10228C00D3E900010DF52863D3E9002380EA020CA1
:10229C00CDF838C74B40CDF83C370DF5E763D3E9A3
:1022AC0000230DF65821C1E900230DF65823D3E97C
:1022BC0000230DF6A821C1E900230DF62823D3E94C
:1022CC0000010DF67823D3E9002380EA020CCDF847
:1022DC0040C74B40CDF844370DF5E863D3E90023F4
:1022EC000DF62821C1E900230DF53863A3F5AA707A
:1022FC000DF53863A3F5AC7103681A030B681B0D5D
:10230C001343CDF848370B681A0303681B0D1343AE
:10231C00CDF84C370DF5E963D3E900230DF52A61AF
:10232C00C1E900230DF6F813D3E900010DF527637D
:10233C00D3E9002380EA020CCDF850C74B40CDF80E
:10234C0054370DF5EA63D3E900230DF6F811C1E912
:10235C0000230DF53863A3F5C2700DF53863A3F5B2
:10236C00C4710368DA020B685B0D1343CDF8583760
:10237C000B68DA0203685B0D1343CDF85C370DF57F
:10238C00EB63D3E900230DF69821C1E900230DF688
:10239C00C813D3E900010DF66823D3E9002380EAC2
:1023AC00020CCDF860C74B40CDF864370DF5EC63EB
:1023BC00D3E900230DF6C811C1E900230DF53863EC
:1023CC00A3F5DC700DF53863A3F5DA710368DA0A4E
:1023DC000B685B051343CDF86C370B68DA0A03689E
:1023EC005B051343CDF868370DF5ED63D3E9002396
:1023FC000DF52961C1E900230DF69813D3E900010D
:10240C000DF52663D3E9002380EA020CCDF870C7E2
:10241C004B40CDF874370DF5EE63D3E900230DF680
:10242C009811C1E900230DF53863A3F5F4700DF58F
:10243C003863A3F5F27103689A0C0B689B03134382
:10244C00CDF87C370B689A0C03689B031343CDF8CB
:10245C0078370DF5EF63D3E900230DF68821C1E938
:10246C0000230DF52A63D3E90023D143B491DB4358
:10247C00B5930DF69823D3E90023DDE9B401844626
:10248C000CEA020CCDF8D8C20B40B7930DF6A8237A
:10249C00D3E90023DDE9B601844682EA0C0CCDF8C1
:1024AC0080C74B40CDF884370DF5F063D3E900239A
:1024BC000DF53761C1E90023DDF87C3B0133BC4AE3
:1024CC00DB001344D3E900010DF53763D3E9002396
:1024DC0082EA000CCDF888C74B40CDF88C370DF54F
:1024EC00F163D3E900230DF53761C1E900230DF643
:1024FC009823D3E90023D143B891DB43B9930DF56D
:10250C002963D3E90023DDE9B80184460CEA020C07
:10251C00CDF8E8C20B40BB930DF52A63D3E9002339
:10252C00DDE9BA01844682EA0C0CCDF890C74B4029
:10253C00CDF894370DF5F263D3E900230DF668312D
:10254C00C1E900230DF52963D3E90023D143BC91E4
:10255C00DB43BD930DF68823D3E90023DDE9BC01F1
:10256C0084460CEA020CCDF8F8C20B40BF930DF672
:10257C009823D3E90023DDE9BE01844682EA0C0CE2
:10258C00CDF898C74B40CDF89C370DF5F363D3E9E4
:10259C0000230DF53661C1E900230DF68823D3E93C
:1025AC000023D143C091DB43C1930DF6A823D3E99B
:1025BC000023DDE9C00184460CEA020CCDF808C307
:1025CC000B40C3930DF52963D3E90023DDE9C20168
:1025DC00844682EA0C0CCDF8A0C74B40CDF8A4374A
:1025EC000DF5F463D3E900230DF65831C1E900234E
:1025FC000DF6A823D3E90023D143C491DB43C59343
:10260C000DF52A63D3E90023DDE9C40184460CEA05
:10261C00020CCDF818C30B40C7930DF68823D3E9F1
:10262C000023DDE9C601844682EA0C0CCDF8A8C76C
:10263C004B40CDF8AC370DF5F563D3E900230DF520
:10264C003561C1E900230DF52463D3E900010DF6D2
:10265C006823D3E9002380EA020CCDF8B0C74B40C5
:10266C00CDF8B4370DF5F663D3E900230DF52461ED
:10267C00C1E900230DF53863A3F5A0700DF538639F
:10268C00A3F59E7103681A090B681B071343CDF859
:10269C00BC370B681A0903681B071343CDF8B8370E
:1026AC000DF5F763D3E900230DF6A821C1E900234A
:1026BC000DF52163D3E900010DF52663D3E9002361
:1026CC0080EA020CCDF8C0C74B40CDF8C4370DF5ED
:1026DC00F863D3E900230DF52161C1E900230DF561
:1026EC003863A3F5B8700DF53863A3F5B6710368BC
:1026FC001A0B0B681B051343CDF8CC370B681A0B60
:10270C0003681B051343CDF8C8370DF5F963D3E9FE
:10271C0000230DF52A61C1E900230DF60823D3E946
:10272C0000010DF52863D3E9002380EA020CCDF8F3
:10273C00D0C74B40CDF8D4370DF5FA63D3E900235D
:10274C000DF60821C1E900230DF53863A3F5BC7023
:10275C000DF53863A3F5BA7103685A0F0B68DB00EB
:10276C001343CDF8DC370B685A0F0368DB001343B7
:10277C00CDF8D8370DF5FB63D3E900230DF698217E
:10278C00C1E900230DF6D813D3E900010DF6782327
:10279C00D3E9002380EA020CCDF8E0C74B40CDF81A
:1027AC00E4370DF5FC63D3E900230DF6D81101E0F5
:1027BC0090750008C1E900230DF53863A3F5D270BC
:1027CC000DF53863A3F5D47103685A030B68DB0C61
:1027DC001343CDF8E8370B685A030368DB0C13433B
:1027EC00CDF8EC370DF5FD63D3E900230DF5296128
:1027FC00C1E900230DF6A813D3E900010DF52763F9
:10280C00D3E9002380EA020CCDF8F0C74B40CDF899
:10281C00F4370DF5FE63D3E900230DF6A811C1E9D9
:10282C0000230DF53863A3F5EA700DF53863A3F5B5
:10283C00EC7103685A070B68DB081343CDF8F837C3
:10284C000B685A070368DB081343CDF8FC370DF50A
:10285C00FF63D3E900230DF68821C1E900230DF5B0
:10286C002A63D3E90023D143C891DB43C9930DF606
:10287C009823D3E90023DDE9C80184460CEA020C55
:10288C00CDF828C30B40CB930DF6A823D3E9002336
:10289C00DDE9CA01844682EA0C0CCDF800C84B4035
:1028AC00CDF804380DF50063D3E900230DF648315B
:1028BC00C1E900230DF69823D3E90023D143CC9131
:1028CC00DB43CD930DF52963D3E90023DDE9CC017E
:1028DC0084460CEA020CCDF838C30B40CF930DF5AF
:1028EC002A63D3E90023DDE9CE01844682EA0C0C8D
:1028FC00CDF808C84B40CDF80C380DF60803D3E9D9
:10290C0000230DF53461C1E900230DF52963D3E9EA
:10291C000023D143D091DB43D1930DF68823D3E927
:10292C000023DDE9D00184460CEA020CCDF848C343
:10293C000B40D3930DF69823D3E90023DDE9D201A4
:10294C00844682EA0C0CCDF810C84B40CDF81438F4
:10295C000DF50163D3E900230DF63831C1E90023ED
:10296C000DF68823D3E90023D143D491DB43D593CF
:10297C000DF6A823D3E90023DDE9D40184460CEA43
:10298C00020CCDF858C30B40D7930DF52963D3E94E
:10299C000023DDE9D601844682EA0C0CCDF818C878
:1029AC004B40CDF81C380DF61803D3E900230DF578
:1029BC003361C1E900230DF6A823D3E90023D143E9
:1029CC00D891DB43D9930DF52A63D3E90023DDE9D4
:1029DC00D80184460CEA020CCDF868C30B40DB939B
:1029EC000DF68823D3E90023DDE9DA01844682EA77
:1029FC000C0CCDF820C84B40CDF824380DF50263F3
:102A0C00D3E900230DF62831C1E900230DF5256328
:102A1C00D3E900010DF67823D3E9002380EA020CF8
:102A2C00CDF828C84B40CDF82C380DF62803D3E947
:102A3C0000230DF52561C1E900230DF53863A3F5DD
:102A4C0098700DF53863A3F596710368DA0F0B686F
:102A5C005B001343CDF834380B68DA0F03685B0066
:102A6C001343CDF830380DF50363D3E900230DF68D
:102A7C00A821C1E900230DF52263D3E900010DF56E
:102A8C002763D3E9002380EA020CCDF838C84B4009
:102A9C00CDF83C380DF63803D3E900230DF522614F
:102AAC00C1E900230DF53863A3F5B0700DF538635B
:102ABC00A3F5AE7103689A0E0B689B011343CDF816
:102ACC0044380B689A0E03689B011343CDF84038C9
:102ADC000DF50463D3E900230DF52A61C1E9002348
:102AEC000DF51F63D3E900010DF66823D3E900232C
:102AFC0080EA020CCDF848C84B40CDF84C380DF6A6
:102B0C004803D3E900230DF51F61C1E900230DF53E
:102B1C003863A3F5C8700DF53863A3F5C671036867
:102B2C00DA090B685B061343CDF854380B68DA09E5
:102B3C0003685B061343CDF850380DF50563D3E9F4
:102B4C0000230DF69821C1E900230DF51C63D3E990
:102B5C0000010DF52663D3E9002380EA020CCDF8C1
:102B6C0058C84B40CDF85C380DF65803D3E9002318
:102B7C000DF51C61C1E900230DF53863A3F5E07078
:102B8C000DF53863A3F5DE7103681A0E0B681B0292
:102B9C001343CDF864380B681A0E03681B021343F9
:102BAC00CDF860380DF50663D3E900230DF52961E6
:102BBC00C1E900230DF6B813D3E900010DF5286324
:102BCC00D3E9002380EA020CCDF868C84B40CDF85D
:102BDC006C380DF66803D3E900230DF6B811C1E982
:102BEC0000230DF53863A3F5E4700DF53863A3F5F8
:102BFC00E27103689A0B0B689B041343CDF874388D
:102C0C000B689A0B03689B041343CDF870380DF5D1
:102C1C000763D3E900230DF68821C1E900230DF5E4
:102C2C002A63D3E90023D143DC91DB43DD930DF61A
:102C3C009823D3E90023DDE9DC0184460CEA020C7D
:102C4C00CDF878C30B40DF930DF6A823D3E900230E
:102C5C00DDE9DE01844682EA0C0CCDF878C84B40E5
:102C6C00CDF87C380DF67803D3E900230DF53261ED
:102C7C00C1E900230DF69823D3E90023D143E09159
:102C8C00DB43E1930DF52963D3E90023DDE9E00192
:102C9C0084460CEA020CCDF888C30B40E3930DF587
:102CAC002A63D3E90023DDE9E201844682EA0C0CB5
:102CBC00CDF880C84B40CDF884380DF50863D3E9C6
:102CCC0000230DF61831C1E900230DF52963D3E972
:102CDC000023D143E491DB43E5930DF68823D3E93C
:102CEC000023DDE9E40184460CEA020CCDF898C31C
:102CFC000B40E7930DF69823D3E90023DDE9E601B9
:102D0C00844682EA0C0CCDF888C84B40CDF88C3840
:102D1C000DF68803D3E900230DF53161C1E90023D9
:102D2C000DF68823D3E90023D143E891DB43E993E3
:102D3C000DF6A823D3E90023DDE9E80184460CEA6B
:102D4C00020CCDF8A8C30B40EB930DF52963D3E926
:102D5C000023DDE9EA01844682EA0C0CCDF890C828
:102D6C004B40CDF894380DF50963D3E900230DF6EB
:102D7C000831C1E900230DF6A823D3E90023D14380
:102D8C00EC91DB43ED930DF52A63D3E90023DDE9E8
:102D9C00EC0184460CEA020CCDF8B8C30B40EF935F
:102DAC000DF68823D3E90023DDE9EE01844682EA9F
:102DBC000C0CCDF898C84B40CDF89C380DF6980308
:102DCC00D3E900230DF53061C1E900230DF638235A
:102DDC00D3E900010DF52663D3E9002380EA020C48
:102DEC00CDF8A0C84B40CDF8A4380DF50A63D3E953
:102DFC0000230DF63821C1E900230DF53863A3F546
:102E0C00A4700DF53863A3F5A27103685A090B6819
:102E1C00DB061343CDF8AC380B685A090368DB06A4
:102E2C001343CDF8A8380DF6A803D3E900230DF60B
:102E3C00A821C1E900230DF52363D3E900010DF5A9
:102E4C002863D3E9002380EA020CCDF8B0C84B40CC
:102E5C00CDF8B4380DF50B63D3E900230DF52361E0
:102E6C00C1E900230DF53863A3F5A6700DF53863A1
:102E7C00A3F5A87103681A010B681B0F1343CDF857
:102E8C00B8380B681A0103681B0F1343CDF8BC3814
:102E9C000DF6B803D3E900230DF52A61C1E900232F
:102EAC000DF52063D3E900010DF67823D3E9002357
:102EBC0080EA020CCDF8C0C84B40CDF8C4380DF5F3
:102ECC000C63D3E900230DF52061C1E900230DF556
:102EDC003863A3F5C0700DF53863A3F5BE710368B4
:102EEC009A0D0B689B021343CDF8CC380B689A0DE6
:102EFC0003689B021343CDF8C8380DF6C803D3E919
:102F0C0000230DF69821C1E900230DF51D63D3E9CB
:102F1C0000010DF52763D3E9002380EA020CCDF8FC
:102F2C00D0C84B40CDF8D4380DF50D63D3E9002350
:102F3C000DF51D61C1E900230DF53863A3F5D870BB
:102F4C000DF53863A3F5D67103685A0C0B68DB03D7
:102F5C001343CDF8DC380B685A0C0368DB031343BE
:102F6C00CDF8D8380DF6D803D3E900230DF5296137
:102F7C00C1E900230DF51A63D3E900010DF66823AE
:102F8C00D3E9002380EA020CCDF8E0C84B40CDF821
:102F9C00E4380DF50E63D3E900230DF51A61C1E990
:102FAC0000230DF53863A3F5EE700DF53863A3F52A
:102FBC00F07103681A060B681B0A1343CDF8E83846
:102FCC000B681A0603681B0A1343CDF8EC380DF690
:102FDC00E803D3E900230DF68821C1E900230DF5A0
:102FEC002A63D3E90023D143F091DB43F1930DF62F
:102FFC009823D3E90023DDE9F00184460CEA020CA6
:10300C00CDF8C8C30B40F3930DF6A823D3E90023E6
:10301C00DDE9F201844682EA0C0CCDF8F0C84B4095
:10302C00CDF8F4380DF50F63D3E900230DF6F82134
:10303C00C1E900230DF69823D3E90023D143F49181
:10304C00DB43F5930DF52963D3E90023DDE9F401A6
:10305C0084460CEA020CCDF8D8C30B40F7930DF55F
:10306C002A63D3E90023DDE9F601844682EA0C0CDD
:10307C00CDF8F8C84B40CDF8FC380DF6F803D3E981
:10308C0000230DF52F61C1E900230DF52963D3E968
:10309C000023D143F891DB43F9930DF68823D3E950
:1030AC000023DDE9F80184460CEA020CCDF8E8C3F4
:1030BC000B40FB930DF69823D3E90023DDE9FA01CD
:1030CC00844682EA0C0CCDF800C94B40CDF804398B
:1030DC000DF51063D3E900230DF6E821C1E90023B7
:1030EC000DF68823D3E90023D143FC91DB43FD93F8
:1030FC000DF6A823D3E90023DDE9FC0184460CEA94
:10310C00020CCDF8F8C30B40FF930DF52963D3E9FE
:10311C000023DDE9FE01844682EA0C0CCDF808C9D7
:10312C004B40CDF80C390DF60813D3E900230DF5FF
:10313C002E61C1E900230DF6A823D3E90023D14366
:10314C00CDF80014DB43CDF804340DF52A63D3E934
:10315C0000230DF58061D1E9000184460CEA020CD4
:10316C00CDF808C40B40CDF80C340DF68823D3E908
:10317C0000230DF58161D1E90001844682EA0C0C33
:10318C00CDF810C94B40CDF814390DF51163D3E9C6
:10319C0000230DF6D821C1E900230DF64823D3E90D
:1031AC0000010DF52763D3E9002380EA020CCDF86A
:1031BC0018C94B40CDF81C390DF61813D3E9002370
:1031CC000DF64821C1E900230DF53863A3F59A707B
:1031DC000DF53863A3F59C7103689A070B689B087F
:1031EC001343CDF820390B689A0703689B081343E7
:1031FC00CDF824390DF51263D3E900230DF6A8217F
:10320C00C1E900230DF61823D3E900010DF668235C
:10321C00D3E9002380EA020CCDF828C94B40CDF845
:10322C002C390DF62813D3E900230DF61821C1E92A
:10323C0000230DF53863A3F5B2700DF53863A3F5D3
:10324C00B4710368DA050B685B0A1343CDF83039A7
:10325C000B68DA0503685B0A1343CDF834390DF5B6
:10326C001363D3E900230DF52A61C1E900230DF6A0
:10327C00E813D3E900010DF52663D3E9002380EAB6
:10328C00020CCDF838C94B40CDF83C390DF638134B
:10329C00D3E900230DF6E811C1E900230DF53863DD
:1032AC00A3F5CA700DF53863A3F5CC710368DA0188
:1032BC000B685B0E1343CDF840390B68DA010368D9
:1032CC005B0E1343CDF844390DF51463D3E9002399
:1032DC000DF69821C1E900230DF51E63D3E9000119
:1032EC000DF52863D3E9002380EA020CCDF848C918
:1032FC004B40CDF84C390DF64813D3E900230DF5AE
:10330C001E61C1E900230DF53863A3F5CE700DF5F0
:10331C003863A3F5D07103685A020B68DB0D1343B5
:10332C00CDF850390B685A020368DB0D1343CDF806
:10333C0054390DF51563D3E900230DF52961C1E965
:10334C0000230DF51B63D3E900010DF67823D3E9B7
:10335C00002380EA020CCDF858C94B40CDF85C39FB
:10336C000DF65813D3E900230DF51B61C1E90023B9
:10337C000DF53863A3F5E8700DF53863A3F5E67128
:10338C0003689A0F0B689B001343CDF864390B68E4
:10339C009A0F03689B001343CDF860390DF5166343
:1033AC00D3E900230DF68821C1E900230DF52A632A
:1033BC00D3E90023D143CDF81014DB43CDF81434FA
:1033CC000DF69823D3E900230DF58261D1E90001B4
:1033DC0084460CEA020CCDF818C40B40CDF81C3412
:1033EC000DF6A823D3E900230DF58361D1E9000183
:1033FC00844682EA0C0CCDF868C94B40CDF86C3988
:10340C000DF66813D3E900230DF52D61C1E90023F6
:10341C000DF69823D3E90023D143CDF82014DB43D8
:10342C00CDF824340DF52963D3E900230DF584611F
:10343C00D1E9000184460CEA020CCDF828C40B40FB
:10344C00CDF82C340DF52A63D3E900230DF58561F5
:10345C00D1E90001844682EA0C0CCDF870C94B40CE
:10346C00CDF874390DF51763D3E900230DF6C82197
:10347C00C1E900230DF52963D3E90023D143CDF82D
:10348C003014DB43CDF834340DF68823D3E9002314
:10349C000DF58661D1E9000184460CEA020CCDF8E9
:1034AC0038C40B40CDF83C340DF69823D3E90023F7
:1034BC000DF58761D1E90001844682EA0C0CCDF848
:1034CC0078C94B40CDF87C390DF67813D3E900233D
:1034DC000DF52C61C1E900230DF68823D3E90023F7
:1034EC006FEA020A6FEA030B0DF6A823D3E9002357
:1034FC000AEA02080BEA03090DF52963D3E9002354
:10350C0082EA0801CDF8801983EA0903CDF88439E1
:10351C000DF51863D3E900230DF6B821C1E900239A
:10352C000DF6A823D3E90023D643DF430DF52A6318
:10353C00D3E9002306EA020407EA03050DF6882303
:10354C00D3E9002382EA0401CDF888196B40CDF849
:10355C008C390DF68813D3E900230DF52B61C1E9E5
:10356C000023DDF87C3B0233CDF87C3BDDF87C3B63
:10357C00172B7DF794A90DF53863A3F5F67319682D
:10358C000DF53763D3E90023C1E900230DF538634A
:10359C00A3F5F6731B6803F108010DF66833D3E944
:1035AC000023C1E900230DF53863A3F5F6731B68FE
:1035BC0003F110010DF53663D3E90023C1E90023B3
:1035CC000DF53863A3F5F6731B6803F118010DF6BE
:1035DC005833D3E90023C1E900230DF53863A3F573
:1035EC00F6731B6803F120010DF53563D3E9002355
:1035FC00C1E900230DF53863A3F5F6731B6803F1DD
:10360C0028010DF64833D3E90023C1E900230DF559
:10361C003863A3F5F6731B6803F130010DF53463C1
:10362C00D3E90023C1E900230DF53863A3F5F67344
:10363C001B6803F138010DF63833D3E90023C1E9D7
:10364C0000230DF53863A3F5F6731B6803F14001F5
:10365C000DF53363D3E90023C1E900230DF538637D
:10366C00A3F5F6731B6803F148010DF62833D3E973
:10367C000023C1E900230DF53863A3F5F6731B682D
:10368C0003F150010DF53263D3E90023C1E90023A6
:10369C000DF53863A3F5F6731B6803F158010DF6AD
:1036AC001833D3E90023C1E900230DF53863A3F5E2
:1036BC00F6731B6803F160010DF53163D3E9002348
:1036CC00C1E900230DF53863A3F5F6731B6803F10C
:1036DC0068010DF60833D3E90023C1E900230DF589
:1036EC003863A3F5F6731B6803F170010DF53063B5
:1036FC00D3E90023C1E900230DF53863A3F5F67374
:10370C001B6803F178010DF6F823D3E90023C1E916
:10371C0000230DF53863A3F5F6731B6803F18001E4
:10372C000DF52F63D3E90023C1E900230DF53863B0
:10373C00A3F5F6731B6803F188010DF6E823D3E9B2
:10374C000023C1E900230DF53863A3F5F6731B685C
:10375C0003F190010DF52E63D3E90023C1E9002399
:10376C000DF53863A3F5F6731B6803F198010DF69C
:10377C00D823D3E90023C1E900230DF53863A3F561
:10378C00F6731B6803F1A0010DF52D63D3E900233B
:10379C00C1E900230DF53863A3F5F6731B6803F13B
:1037AC00A8010DF6C823D3E90023C1E900230DF5C8
:1037BC003863A3F5F6731B6803F1B0010DF52C63A8
:1037CC00D3E90023C1E900230DF53863A3F5F673A3
:1037DC001B6803F1B8010DF6B823D3E90023C1E946
:1037EC0000230DF53863A3F5F6731B6803F1C001D4
:1037FC000DF52B63D3E90023C1E9002300BF0DF5C0
:10380C00386DBDE8F00F704770B586B0039002912B
:10381C00019200933EE0009A0A9B9A4204D10198CF
:10382C00FCF71CFF00230093009B059320E0059BF5
:10383C0023F00703019A1344D3E90023059901F0FF
:10384C000701C900C1F12006A1F1200022FA01F400
:10385C0003FA06F6344323FA00F0044323FA01F585
:10386C00039B5A1C0392E2B21A70059B0133059319
:10387C00059A0A9B9A4205D2009A029B1344059A18
:10388C009A42D4D3009A059BD31A029A13440293FA
:10389C00059B0093029B002BBDD1009B184606B0E4
:1038AC0070BD2DE9F04F91B00D900C910B920A93D5
:1038BC0000230F930CE00F9BDA000D9B99184FF02F
:1038CC0000024FF00003C1E900230F9B01330F935B
:1038DC000F9B182BEFD932E000230F931FE00F9BA7
:1038EC00DA000B9B13441846FCF754FE04460D46B5
:1038FC000F9BDA000D9B1344D3E900010F9BDA00F8
:10390C000D9B134484EA0002029285EA01020392A1
:10391C00DDE90212C3E900120F9B01330F930C9BDC
:10392C00DA080F9B9342DAD30B9A0C9B13440B933C
:10393C000A9A0C9BD31A0A930D98FCF78FFE0A9ADD
:10394C000C9B9A42C8D200230F9338E00F9B23F0B4
:10395C0007020D9B1344D3E900450B9A0F9B1344AC
:10396C001B78DBB20022009301920F9B03F007033C
:10397C00D900A1F12003C1F12002019800FA01F94C
:10398C00009800FA03F349EA0309009B23FA02F2B8
:10399C0049EA0209009B03FA01F80F9B23F0070286
:1039AC000D9B134484EA0802049285EA09020592ED
:1039BC00DDE90412C3E900120F9B01330F930F9A38
:1039CC000A9B9A42C2D30F9B23F007030D9A134410
:1039DC00D3E900019DF8683000229A4693460F9B6C
:1039EC0003F00703DB00A3F12004C3F120020BFA60
:1039FC0003F70AFA04F427432AFA02F217430AFAE5
:103A0C0003F60F9B23F007030D9A134480EA06027A
:103A1C00069281EA07020792DDE90612C3E9001259
:103A2C000C9B013B23F007030D9A1344D3E90023AD
:103A3C000C99013921F007010D980144089203F10A
:103A4C0000430993DDE90834C1E9003400BF11B02B
:103A5C00BDE8F08F00B587B00390029101920093FE
:103A6C0021E00198FCF7FAFD002305930FE0059B7C
:103A7C00DB00039AD118059BDB00019A1344D3E9B0
:103A8C0000230846FCF7C0FD059B01330593009B02
:103A9C00DB08059A9A42EAD3039A009B13440393DA
:103AAC00029B013B0293029B002BDAD100BF00BFAB
:103ABC0007B05DF804FB00B587B005900491039244
:103ACC0005981F230093039B049AA821FFF7E9FE96
:103ADC00059BA822C3F8C82000BF07B05DF804FB03
:103AEC0000B585B0039002910192019AA823029926
:103AFC000398FFF7AFFF00BF05B05DF804FB00B5FE
:103B0C0087B0059004910392039A039BD3F8C830B5
:103B1C008821009104990598FFF776FE0246039BD5
:103B2C00C3F8C82000BF07B05DF804FB00B587B030
:103B3C0005900491039205981F230093039B049A0C
:103B4C008821FFF7AEFE059B8822C3F8C82000BF72
:103B5C0007B05DF804FB00B585B0039002910192AB
:103B6C00019A882302990398FFF774FF00BF05B0F0
:103B7C005DF804FB00B5BBB0039002910192009379
:103B8C0004AB009A01991846FFF7D0FF029B134A29
:103B9C00A2FB0323DB09399304AB1A46399903982A
:103BAC00FFF7D9FF399A13461B011344DB001A4661
:103BBC00029B9B1A0293399A13461B011344DB0098
:103BCC001A46039B1344039304AB1A4602990398B9
:103BDC00FFF795FF00BF3BB05DF804FBF1F0F0F090
:103BEC0000B5BBB005900491039206A80623009380
:103BFC00039B049A8821FFF754FE06AB1846FCF78A
:103C0C002DFD0023399310E0399BDB00059AD11868
:103C1C00399BDB00E8336B44D03BD3E900230846E7
:103C2C00FCF7F2FC399B01333993399B032BEBD90D
:103C3C0000BF00BF3BB05DF804FB000000B589B0CD
:103C4C0004AB00221A605A609A60DA60234B9B69BD
:103C5C00224A43F010039361204B9B6903F010033D
:103C6C000393039B1D4B9B691C4A43F020039361F8
:103C7C001A4B9B6903F020030293029B174B9B6921
:103C8C00164A43F008039361144B9B6903F0080335
:103C9C000193019B114B9B69104A43F00403936100
:103CAC000E4B9B6903F004030093009B00224FF41E
:103CBC0070410B4801F0D2FD4FF470430493012383
:103CCC000593002306930223079304AB194604487B
:103CDC0001F044FC00BF09B05DF804FB0010024089
:103CEC00000C014000B587B003900291019202993B
:103CFC00039800F024FE002305930CE0019A059B29
:103D0C001A44059B03F5407303990B4412781A70FF
:103D1C00059B01330593059B1F2BEFD900BF00BFFB
:103D2C0007B05DF804FB00B583B0019000910099D9
:103D3C00019800F004FE00BF03B05DF804FB88B0EE
:103D4C00039002910192009300230693069B079324
:103D5C004BE0019A069B13441B781AB2069B013365
:103D6C0001990B441B781B021BB213431BB29BB271
:103D7C00C3F30B03ADF81630069B0133019A1344C1
:103D8C001B781B09DBB21AB2069B023301990B4458
:103D9C001B781B011BB213431BB29BB2C3F30B0367
:103DAC00ADF81430069B03330693BDF81630B3F50B
:103DBC00506F08D8079B5A1C07925B00039A134458
:103DCC00BDF916201A80079A029B9A420DD2BDF8B3
:103DDC001430B3F5506F08D8079B5A1C07925B0040
:103DEC00039A1344BDF914201A80079A029B9A4235
:103DFC0004D2069B0333009A9A42AAD2079B184618
:103E0C0008B0704700B5ADF53F7DBEABA3F53B7375
:103E1C001860BEABA3F53C731960BEABA3F53D7344
:103E2C001A600023BC938EE00023BB9384E0BEABEE
:103E3C00A3F53D731B68002B0BD0BC9BDAB2BB9B6C
:103E4C00DBB2BEA9A1F53C7104A8096801F06EF8BB
:103E5C000AE0BB9BDAB2BC9BDBB2BEA9A1F53C71FC
:103E6C0004A8096801F062F804AA39AB03211846CA
:103E7C00FFF736FE4FF4FC73B993BC9B9B02BEAAB2
:103E8C00A2F53B7212681A44BB9B5B02D01839AA8C
:103E9C00B99B4FF48071FFF752FFBD9046E0B99A81
:103EAC002E4BA3FB021359080B465B000B44D31A91
:103EBC00B8930023BA9312E0B99AB89BD21ABA9B62
:103ECC001344BEAAA2F50572D15CBEABA3F5057274
:103EDC00BA9B13440A461A70BA9B0133BA93BA9A26
:103EEC00B89B9A42E8D339AAB89B134404AA01217F
:103EFC001846FFF7F5FDB89BA833B993BC9B9B0202
:103F0C00BEAAA2F53B7212681A44BB9B5B021A4410
:103F1C00BD9B5B00D018BD9BC3F5807139AAB99BC2
:103F2C00FFF70DFF0246BD9B1344BD93BD9BFF2BBA
:103F3C00B5D9BB9B0133BB93BB9B012B7FF677AFF2
:103F4C00BC9B0133BC93BC9B012B7FF66DAF00BFB8
:103F5C0000BF0DF53F7D5DF804FB00BFABAAAAAA1C
:103F6C0030B5ADF5A25D87B00DF58B63A3F254436C
:103F7C0018600DF58B63A3F58B6319608A4B0DF5F7
:103F8C00A05404F108041D460FCD0FC40FCD0FC46F
:103F9C000FCD0FC495E80F0084E80F000DF5A0536A
:103FAC0003F108030DF5A25202F10C0213600DF59A
:103FBC00A05303F1080320330DF5A25202F10802BD
:103FCC00136000230DF5A25202F1130213700DF6CB
:103FDC00084300220DF5A25101F10C0109681846A5
:103FEC00FFF710FF00230DF5A25202F1140213602B
:103FFC0026E006AB103B0DF5A25202F1140212683A
:10400C00520298180DF5A25303F113031B785A1C96
:10401C000DF5A25101F113010A701A460DF5A253C8
:10402C0003F10803196800F0B5FB0DF5A25303F179
:10403C0014031B6801330DF5A25202F11402136034
:10404C000DF5A25303F114031B68012BD1D90023E6
:10405C000DF5A25202F11402136026E00DF60802CF
:10406C000DF5A25303F114031B685B02D0180DF578
:10407C00A25303F113031B785A1C0DF5A25101F145
:10408C0013010A701A460DF5A25303F108031968BF
:10409C0000F080FB0DF5A25303F114031B680133F0
:1040AC000DF5A25202F1140213600DF5A25303F1A7
:1040BC0014031B68012BD1D906AB103B184600F03A
:1040CC0080FC0DF60803184600F07BFC00230DF570
:1040DC00A25202F1140213602FE00DF58363103B22
:1040EC000DF5A25202F114021268520298180DF644
:1040FC0008420DF5A25303F114031B689B02D1185F
:10410C0006AB103B1A4600F074FC0DF58363103BB4
:10411C000DF5A25202F11402126852021344184611
:10412C0000F0A6FB0DF5A25303F114031B68013339
:10413C000DF5A25202F1140213600DF5A25303F116
:10414C0014031B68012BC8D90DF608020DF5836109
:10415C0010390DF58363103B184600F0B0FC0DF5DB
:10416C008363103B184600F092FC06AB103B0DF538
:10417C008B62A2F58B6219461068FFF7D4FD0DF522
:10418C008363103B0DF58B62A2F254400DF5A252E5
:10419C0002F10C02126819460068FFF7A3FD00BF7C
:1041AC000DF5A25D07B030BDC073000800B585B039
:1041BC000190009100990198FFF7D2FE0023039320
:1041CC000CE0019A039B1A44039B03F5407300997E
:1041DC000B4412781A70039B01330393039BB3F5C2
:1041EC00487FEED3009B03F5C4634FF448720199EA
:1041FC001846FFF7F5FC009B03F5C8632021184611
:10420C0000F0A2FD0023184605B05DF804FB00B5D4
:10421C0087B00390029101920199039800F0B0FBD2
:10422C00002305930CE0059B03F54073019A1A4497
:10423C000299059B0B4412781A70059B0133059368
:10424C00059B1F2BEFD900BF00BF07B05DF804FB27
:10425C0000B583B0019000910099019800F090FB9B
:10426C0000BF03B05DF804FB00B5ADF5E65D81B0B1
:10427C000DF59A520DF5CD5311461846FFF796FFE2
:10428C0000F0BCFF03463A4A13600DF59A510DF548
:10429C0082534FF4CC621846FFF7A2FC00F0AEFF3D
:1042AC000346344A1360334B1A68314B1B68D31ADC
:1042BC001A463149314802F0FFFC42F21073402299
:1042CC002E492F4801F040FF0DF5CD520DF58051D0
:1042DC000DF540631846FFF79AFF00F08FFF034679
:1042EC00234A13600DF580510DF5806301221846A9
:1042FC00FFF788FD00F082FF03461E4A13601D4B3A
:10430C001A681B4B1B68D31A1A461B491B4802F030
:10431C00D3FC42F2107340221849194801F014FFE3
:10432C0000F06CFF0346124A13600DF59A526B466F
:10433C0011461846FFF78CFF00F060FF03460D4A4C
:10434C0013600C4B1A680A4B1B68D31A1A460A499D
:10435C000A4802F0B1FC42F21073402207490848A7
:10436C0001F0F2FE00BF0DF5E65D01B05DF804FB57
:10437C005001002054010020207400080C01002082
:10438C00B001002000B583B000F0E6FE00F02CF880
:10439C00FFF754FC00F042FEFBF796FFFBF75FFFC4
:1043AC00FFF762FF0A4B1B781A460A4B1B7819461B
:1043BC00094B1B7800930B460849094802F07CFC1A
:1043CC0042F2107340220649064801F0BDFEFEE79A
:1043DC004C0100204D0100204E0100206C7500089E
:1043EC000C010020B001002000B591B006AB2822D2
:1043FC000021184602F06CFB01AB00221A605A60D7
:10440C009A60DA601A610223069301230A9310233F
:10441C000B9302230D9300230E934FF460130F9311
:10442C0006AB184601F034FA0346002B01D000F01D
:10443C0019F80F23019302230293002303934FF4E3
:10444C00806304930023059301AB0221184601F00D
:10445C00A3FC0346002B01D000F004F800BF11B000
:10446C005DF804FB72B600BFFEE700B583B00346EF
:10447C000A46ADF806301346ADF80430BDF90630E7
:10448C00BDF9042002FB03F3184600F0ADFC034613
:10449C00184603B05DF804FB00B589B00190012308
:1044AC0004938023079355E0002306934CE0049B70
:1044BC005A1C04922B4A32F81330ADF80E30069B7E
:1044CC00059337E0059A079B13445B00019A13444C
:1044DC00B3F90020BDF90E3011461846FFF7C5FFA1
:1044EC000346ADF80C30059B5B00019A1344B3F9FD
:1044FC0000309AB2BDF80C30D31A99B2059A079BCA
:10450C0013445B00019A13440AB21A80059B5B00AA
:10451C00019A1344B3F900309AB2BDF80C3013442D
:10452C0099B2059B5B00019A13440AB21A80059B51
:10453C0001330593069A079B1344059A9A42C1D3FB
:10454C00059A079B13440693069BFF2BAFD9079B39
:10455C005B080793079B012BA6D800BF00BF09B0CF
:10456C005DF804FB5076000810B584B003900291FE
:10457C000192ADF80230029B0233B3F90020019B8B
:10458C000233B3F9003019461046FFF76EFF0346AD
:10459C001A46039B1A80039BB3F90030BDF9022025
:1045AC0011461846FFF761FF03461A46039B1A8013
:1045BC00029BB3F90020019BB3F900301946104659
:1045CC00FFF753FF03461946039BB3F900309AB229
:1045DC008BB213449BB21AB2039B1A80029BB3F9A1
:1045EC000020019B0233B3F90010039B9C1C104666
:1045FC00FFF73BFF03462380029B0233B3F90020F5
:10460C00019BB3F9003019461046FFF72EFF034605
:10461C001946039B0233B3F900309AB28BB21344A0
:10462C009AB2039B023312B21A8000BF04B010BDC1
:10463C0084B0019000910023039358E0039B5A002F
:10464C00009B33F91230ADF80A30BDF90A30DB1398
:10465C001BB29AB240F6015313409AB2BDF80A301D
:10466C001344ADF80A30039B5B005A1C009B33F9D2
:10467C001230ADF80830BDF90830DB131BB29AB21A
:10468C0040F6015313409AB2BDF808301344ADF80C
:10469C000830039A13465B001344019A1344BDF887
:1046AC000A20D2B21A70BDF80A301B0A9BB25AB259
:1046BC00BDF808301B015BB2134359B2039A134681
:1046CC005B0013440133019A1344CAB21A70BDF84B
:1046DC0008301B0999B2039A13465B00134402334A
:1046EC00019A1344CAB21A70039B01330393039BC0
:1046FC007F2BA3D900BF00BF04B0704784B00190DA
:10470C000091002303933EE0039A13465B0013448D
:10471C00009A13441B7819B2039A13465B00134496
:10472C000133009A13441B781B021BB20B431BB2C0
:10473C00039A5200C3F30B0319B2019B23F8121016
:10474C00039A13465B0013440133009A13441B78FD
:10475C001B09DBB219B2039A13465B0013440233F4
:10476C00009A13441B781B011BB20B431BB2039A18
:10477C0052000132C3F30B0319B2019B23F8121040
:10478C00039B01330393039B7F2BBDD900BF00BF59
:10479C0004B0704700B5B5B00390029113468DF884
:1047AC0007309DF8073004A8029AC02100F0E2FB04
:1047BC0004AB19460398FBF7E1FE00BF35B05DF87A
:1047CC0004FB00B583B00190019B1846FFF764FE13
:1047DC00019800F074F800BF03B05DF804FB000012
:1047EC0010B586B00390029101920023059335E039
:1047FC00059B9B005B00039AD018059B9B005B00FC
:10480C00029AD118059B9B005B00019A1A44059BE8
:10481C004033164C34F91330FFF7A6FE059B9B0072
:10482C0002335B00039AD018059B9B0002335B009C
:10483C00029AD118059B9B0002335B00019A1A4423
:10484C00059B4033094C34F913309BB25B429BB24D
:10485C001BB2FFF789FE059B01330593059B3F2B8C
:10486C00C6D900BF00BF06B010BD00BF507600080F
:10487C0000B585B0019040F24953ADF80A300023E1
:10488C00039314E0019B039A33F912301A46BDF9D5
:10489C000A3002FB03F3184600F0A6FA0346194649
:1048AC00019B039A23F81210039B01330393039B80
:1048BC00FF2BE7D900BF00BF05B05DF804FB00B5C6
:1048CC0085B00190002303930FE0019B039A33F909
:1048DC001230184600F0AEFA03461946019B039AB3
:1048EC0023F81210039B01330393039BFF2BECD98A
:1048FC0000BF00BF05B05DF804FB86B003900291C9
:10490C0001920023059313E0029B059A33F91230B0
:10491C009AB2019B059933F911309BB213449BB2A7
:10492C0019B2039B059A23F81210059B01330593CA
:10493C00059BFF2BE8D900BF00BF06B0704700B540
:10494C0085B0019000910023039311E0039A134664
:10495C005B001344DB011A46019B9818039B5B0216
:10496C00009A13441946FFF763FE039B013303932C
:10497C00039B012BEAD900BF00BF05B05DF804FB17
:10498C0000B585B0019000910023039311E0039BC7
:10499C005B02019AD018039A13465B001344DB01A7
:1049AC001A46009B13441946FFF7A8FE039B0133DC
:1049BC000393039B012BEAD900BF00BF05B05DF840
:1049CC0004FB00B585B001900023039309E0039B21
:1049DC005B02019A13441846FFF7F3FE039B013365
:1049EC000393039B012BF2D900BF00BF05B05DF808
:1049FC0004FB00B5ADF5077D86ABA3F5037318601A
:104A0C0086ABA3F50473196086ABA3F505731A6026
:104A1C0086ABA3F50473196886ABA3F505731A6806
:104A2C0086ABA3F503731868FFF7DAFE01238593B1
:104A3C001FE086ABA3F50472859B5B021268D1184C
:104A4C0086ABA3F50572859B5B0212681A4405AB15
:104A5C001846FFF7C5FE05AA86ABA3F5037186AB16
:104A6C00A3F5037309681868FFF747FF859B0133AB
:104A7C008593859B012BDCD986ABA3F50373186852
:104A8C00FFF71DFF00BF0DF5077D5DF804FB00B5BA
:104A9C0085B001900023039309E0039B5B02019A0C
:104AAC0013441846FFF70BFF039B01330393039B3F
:104ABC00012BF2D900BF00BF05B05DF804FB00B5B7
:104ACC0087B00390029101920023059311E0059B9E
:104ADC005B02039AD018059B5B02029AD118059BC6
:104AEC005B02019A13441A46FFF707FF059B01333B
:104AFC000593059B012BEAD900BF00BF07B05DF8F9
:104B0C0004FB000092B00023109300230E9312E0DC
:104B1C00894A0E9B52F823200E9B0C33874951F87F
:104B2C0023305A400E9B9B0048336B4443F8442C73
:104B3C000E9B01330E930E9B0B2BE9DD00230E9382
:104B4C000BE00E9B18337D4A52F823207C490E9BB8
:104B5C0041F823200E9B01330E930E9B072BF0DDA7
:104B6C000C9B119300230D93DDE000230F93BAE00F
:104B7C00109A744B13441093019A704B1968119B43
:104B8C005940109B1944119B4FEAF3634B4013445B
:104B9C000193019B1193029A684B5968119B5940E0
:104BAC00109B1944119B4FEA73634B4013440293BF
:104BBC00029B1193039A614B9968119B5940109B6E
:104BCC001944119B4FEAF3534B4013440393039B3B
:104BDC001193049A594BD968119B5940109B194455
:104BEC00119B4FEAF3434B4013440493049B1193E2
:104BFC00059A524B1969119B5940109B1944119BF2
:104C0C004FEAF3634B4013440593059B1193069AAB
:104C1C004A4B5969119B5940109B1944119B4FEAFF
:104C2C0073634B4013440693069B1193079A434BB3
:104C3C009969119B5940109B1944119B4FEAF353EE
:104C4C004B4013440793079B1193089A3B4BD9692C
:104C5C00119B5940109B1944119B4FEAF3434B4055
:104C6C0013440893089B1193099A344B196A119BAE
:104C7C005940109B1944119B4FEAF3634B4013446A
:104C8C000993099B11930A9A2C4B596A119B594011
:104C9C00109B1944119B4FEA73634B4013440A93C6
:104CAC000A9B11930B9A254B996A119B5940109BA7
:104CBC001944119B4FEAF3534B4013440B930B9B3A
:104CCC0011930C9A1D4BD96A119B5940109B194496
:104CDC00119B4FEAF3434B4013440C930C9B1193E1
:104CEC000F9B01330F930F9B0F2B7FF741AF0023CB
:104CFC000E9312E0124A0E9B52F823200E9B0433A3
:104D0C009B0048336B4453F8443C5A400C490E9B6F
:104D1C0041F823200E9B01330E930E9B072BE9DDEC
:104D2C000D9B01330D930D9B012B7FF71EAF00BF25
:104D3C0000BF12B0704700BF5801002000000020D7
:104D4C0088010020B979379E00B583B0019000919D
:104D5C003BE0224B1B68002B24D1214B1B680133F9
:104D6C001F4A13601E4B1B68002B16D11C4B5B6833
:104D7C0001331B4A53601A4B5B68002B0DD1184B47
:104D8C009B680133164A9360154B9B68002B04D12A
:104D9C00134BDB680133124AD360FFF7B3FE0F4BA2
:104DAC0008221A600D4B1B68013B0C4A13600B4B1D
:104DBC001B680C4A52F82330DAB2019B1A70019B23
:104DCC0001330193009B013B0093009B002BC0D14E
:104DDC0000BF00BF03B05DF804FB00BFA8010020BA
:104DEC00580100208801002084B00190019B9BB2E7
:104DFC001A4652001A441146C800114602460A448B
:104E0C001146C800114602460A44120213449BB2D2
:104E1C00ADF80E30BDF90E306FF4506203FB02F2A8
:104E2C00019B13441B14ADF80E30BDF90E3018461F
:104E3C0004B0704784B00346ADF8063044F6BF6347
:104E4C00ADF80E30BDF90E30BDF9062002FB03F3B0
:104E5C0003F100739B16ADF80C30BDF80C301A46FC
:104E6C0052001A4492001A44120213449BB2ADF839
:104E7C000C30BDF80620BDF80C30D31A9BB21BB217
:104E8C00184604B07047000000B585B0184B9B69FC
:104E9C00174A43F001039361154B9B6903F001031F
:104EAC000293029B124BDB69114A43F08053D3618E
:104EBC000F4BDB6903F080530193019B002200210F
:104ECC00052000F065FA052000F07EFA094B5B68BE
:104EDC000393039B23F0E0630393039B43F0007362
:104EEC000393044A039B536000BF05B05DF804FBB9
:104EFC000010024000000140FEE7FEE7FEE7FEE77F
:104F0C00FEE700BF704700BF704700BF704708B591
:104F1C0000F066F900BF08BD00BF704708B5024835
:104F2C0001F0A8F900BF08BDB001002000B58FB09A
:104F3C000390029111461A460B468DF80730134622
:104F4C008DF8063005AB20220299184601F0B2FD0F
:104F5C009DF807308DF834309DF806308DF83530DB
:104F6C0005AB222219460398FEF7A5FD00BF0FB032
:104F7C005DF804FB00B58FB00390029101928DF89F
:104F8C00033005AB20220199184601F093FD9DF8E2
:104F9C0003308DF8343005AA212302990398FEF7CB
:104FAC00E9FD00BF0FB05DF804FB000000B587B051
:104FBC000190154A154BD31A0593059B0493144B7A
:104FCC001B68002B02D1124B124A1A60104B1A6844
:104FDC00019B1344049A9A4207D201F031FD034617
:104FEC000C221A604FF0FF3309E0094B1B68039346
:104FFC00074B1A68019B1344054A1360039B184620
:10500C0007B05DF804FB00BF005000200004000056
:10501C00AC0100200802002000BF704708B5114BFE
:10502C00114A1A600F4B4FF416525A600D4B002266
:10503C009A600C4B0022DA600A4B00221A61094B71
:10504C000C225A61074B00229A61064B0022DA614E
:10505C00044801F02DF80346002B01D0FFF702FAAB
:10506C0000BF08BDB00100200038014000B589B078
:10507C00019004AB00221A605A609A60DA60019BBE
:10508C001B681F4A934237D11E4B9B691D4A43F440
:10509C00804393611B4B9B6903F480430393039BF5
:1050AC00184B9B69174A43F004039361154B9B699A
:1050BC0003F004030293029B4FF400730493022346
:1050CC0005930323079304AB19460F4800F046FAE7
:1050DC004FF480630493002305930023069304ABE1
:1050EC001946094800F03AFA00220021252000F068
:1050FC004FF9252000F068F900BF09B05DF804FBFA
:10510C000038014000100240000801400C480D49D5
:10511C000D4A002302E0D458C4500433C4188C4206
:10512C00F9D30A4A0A4C002301E013600432A2426C
:10513C00FBD3FFF771FF01F089FCFFF723F97047F0
:10514C0000000020F000002004780008F00000208F
:10515C0008020020FEE7000008B5084B1B68074A50
:10516C0043F010031360032000F008F90F2000F047
:10517C0007F8FFF789FE0023184608BD00200240FF
:10518C0000B583B00190134B1A68134B1B7819466A
:10519C004FF47A73B3FBF1F3B2FBF3F3184600F060
:1051AC0021F90346002B01D001230EE0019B0F2BAC
:1051BC000AD8002201994FF0FF3000F0E9F8074AB5
:1051CC00019B1360002300E00123184603B05DF837
:1051DC0004FB00BF80000020880000208400002019
:1051EC00044B1B781A46044B1B681344024A136089
:1051FC0000BF704788000020F4010020014B1B68A1
:10520C0018467047F401002084B00190019B03F014
:10521C00070303930B4BDB680293029A4FF6FF03D1
:10522C0013400293039B1A02029B134343F0BF6388
:10523C0043F400330293034A029BD36000BF04B0D3
:10524C00704700BF00ED00E0034BDB681B0A03F066
:10525C0007031846704700BF00ED00E082B003461C
:10526C008DF807309DF90730002B0CDB9DF80730CB
:10527C0003F01F0205499DF907305B09012000FA74
:10528C0002F241F8232000BF02B0704700E100E0B9
:10529C0082B0034600918DF807309DF90730002B42
:1052AC000ADB009BDAB20C499DF907301201D2B22D
:1052BC000B4483F800230BE0009BDAB207499DF8FE
:1052CC00073003F00F03043B1201D2B20B441A76E1
:1052DC0000BF02B0704700BF00E100E000ED00E04D
:1052EC0088B0039002910192039B03F0070307938C
:1052FC00079BC3F10703042B28BF04230693079BCA
:10530C000433062B02D9079B033B00E000230593D3
:10531C004FF0FF32069B02FA03F3DA43029B1A406A
:10532C00059B9A404FF0FF31059B01FA03F3D943DB
:10533C00019B0B401343184608B0704700B583B06F
:10534C000190019B013BB3F1807F01D301230FE05E
:10535C00094A019B013B53600F214FF0FF30FFF7CF
:10536C0097FF054B00229A60034B07221A6000231B
:10537C00184603B05DF804FB10E000E000B583B004
:10538C0001900198FFF740FF00BF03B05DF804FBEC
:10539C0000B587B00346029101928DF80F300023BF
:1053AC000593FFF751FF0590019A02990598FFF7B5
:1053BC0097FF02469DF90F3011461846FFF768FF1C
:1053CC0000BF07B05DF804FB00B583B003468DF851
:1053DC0007309DF907301846FFF740FF00BF03B0B8
:1053EC005DF804FB00B583B001900198FFF7A6FFB0
:1053FC000346184603B05DF804FB84B0019000230B
:10540C008DF80F30019B93F82130022B08D0019BB3
:10541C0004229A63019B002283F82020012321E0BF
:10542C00019B1B681A68019B1B6822F00E021A6014
:10543C00019B1B681A68019B1B6822F001021A6011
:10544C00019B1A6C019BDB6B012101FA02F25A6081
:10545C00019B012283F82120019B002283F820204C
:10546C009DF80F30184604B07047000000B585B0A9
:10547C00019000238DF80F30019B93F82130022B03
:10548C0006D0019B04229A6301238DF80F3051E062
:10549C00019B1B681A68019B1B6822F00E021A60A4
:1054AC00019B1B681A68019B1B6822F001021A60A1
:1054BC00019B1B68224A934229D0019B1B68214AFD
:1054CC00934222D0019B1B681F4A93421AD0019B26
:1054DC001B681E4A934212D0019B1B681C4A9342C4
:1054EC000AD0019B1B681B4A934202D14FF48013D4
:1054FC000EE04FF080730BE04FF4803308E04FF474
:10550C00805305E04FF4807302E0102300E0012388
:10551C00114A5360019B012283F82120019B002238
:10552C0083F82020019B5B6B002B03D0019B5B6BF2
:10553C00019898479DF80F30184605B05DF804FBAC
:10554C00080002401C0002403000024044000240AF
:10555C00580002406C000240000002408AB00190EA
:10556C000091002309930023089369E10122099B10
:10557C0002FA03F30793009B1B68079A13400693E8
:10558C00069A079B9A4240F05881009B5B689A4AA6
:10559C0093425ED0984A934275D8984A934258D019
:1055AC00964A93426FD8964A934252D0944A934269
:1055BC0069D8944A93424CD0924A934263D8924A07
:1055CC00934246D0904A93425DD8122B2AD8122B84
:1055DC0059D801A252F823F05F560008395600083A
:1055EC004B5600088D560008935600089356000839
:1055FC0093560008935600089356000893560008DB
:10560C0093560008935600089356000893560008CA
:10561C00935600089356000893560008415600080C
:10562C0055560008794A934213D02CE0009BDB6856
:10563C00089329E0009BDB680433089324E0009B6B
:10564C00DB68083308931FE0009BDB680C3308937E
:10565C001AE0009B9B68002B02D10423089313E0F3
:10566C00009B9B68012B05D108230893019B079A8B
:10567C001A6109E008230893019B079A5A6103E019
:10568C000023089300E000BF069BFF2B01D8019B71
:10569C0001E0019B04330593069BFF2B02D8099B69
:1056AC009B0002E0099B083B9B000493059B1A6836
:1056BC000F21049B01FA03F3DB431A400899049B66
:1056CC0001FA03F31A43059B1A60009B5B6803F015
:1056DC008053002B00F0B1804D4B9B694C4A43F03A
:1056EC00010393614A4B9B6903F001030293029BF4
:1056FC00484A099B9B08023352F823300393099BB9
:10570C0003F003039B000F2202FA03F3DB43039A1B
:10571C0013400393019B404A934213D0019B3F4A91
:10572C0093420DD0019B3E4A934207D0019B3D4AC8
:10573C00934201D1032306E0042304E0022302E098
:10574C00012300E00023099A02F003029200934027
:10575C00039A134303932F49099B9B080233039A23
:10576C0041F82320009B5B6803F48033002B06D0A8
:10577C002D4B1A682C49069B13430B6006E02A4BF1
:10578C001A68069BDB43284913400B60009B5B683F
:10579C0003F40033002B06D0234B5A682249069B96
:1057AC0013434B6006E0204B5A68069BDB431E49B3
:1057BC0013404B60009B5B6803F48013002B06D0F6
:1057CC00194B9A681849069B13438B6006E0164BDD
:1057DC009A68069BDB43144913408B60009B5B6803
:1057EC0003F40013002B21D00F4BDA680E49069BF3
:1057FC001343CB6021E000BF0000321000003110D9
:10580C0000002210000021100000121000001110E6
:10581C00001002400000014000080140000C014053
:10582C000010014000140140000401400A4BDA68EA
:10583C00069BDB4308491340CB60099B013309935A
:10584C00009B1A68099B22FA03F3002B7FF48EAE9F
:10585C0000BF00BF0AB070470004014082B0019045
:10586C000B46ADF8023013468DF801309DF801302F
:10587C00002B04D0BDF80220019B1A6104E0BDF896
:10588C0002301A04019B1A6100BF02B0704700007D
:10589C0000B587B00190019B002B01D1012375E26B
:1058AC00019B1B6803F00103002B00F08780924BD7
:1058BC005B6803F00C03042B0CD08F4B5B6803F07C
:1058CC000C03082B12D18C4B5B6803F48033B3F5BB
:1058DC00803F0BD1884B1B6803F40033002B6CD03A
:1058EC00019B5B68002B68D101234FE2019B5B6835
:1058FC00B3F5803F06D1804B1B687F4A43F480335D
:10590C0013602EE0019B5B68002B0CD17A4B1B685B
:10591C00794A23F480331360774B1B68764A23F45F
:10592C00802313601DE0019B5B68B3F5A02F0CD1A5
:10593C00714B1B68704A43F4802313606E4B1B68D9
:10594C006D4A43F4803313600BE06B4B1B686A4A5F
:10595C0023F480331360684B1B68674A23F480235D
:10596C001360019B5B68002B13D0FFF747FC04907E
:10597C0008E0FFF743FC0246049BD31A642B01D9C1
:10598C00032303E25C4B1B6803F40033002BF0D0C1
:10599C0014E0FFF733FC049008E0FFF72FFC0246FD
:1059AC00049BD31A642B01D90323EFE1524B1B68E0
:1059BC0003F40033002BF0D100E000BF019B1B6807
:1059CC0003F00203002B63D04B4B5B6803F00C031A
:1059DC00002B0BD0484B5B6803F00C03082B1CD13D
:1059EC00454B5B6803F48033002B16D1424B1B688C
:1059FC0003F00203002B05D0019B1B69012B01D086
:105A0C000123C3E13C4B1B6823F0F802019B5B694B
:105A1C00DB00394913430B603AE0019B1B69002BF7
:105A2C0020D0364B01221A60FFF7E8FB049008E007
:105A3C00FFF7E4FB0246049BD31A022B01D9032384
:105A4C00A4E12D4B1B6803F00203002BF0D02A4B72
:105A5C001B6823F0F802019B5B69DB0026491343AA
:105A6C000B6015E0254B00221A60FFF7C7FB049072
:105A7C0008E0FFF7C3FB0246049BD31A022B01D9A3
:105A8C00032383E11C4B1B6803F00203002BF0D1B2
:105A9C00019B1B6803F00803002B39D0019B9B6909
:105AAC00002B19D0164B01221A60FFF7A7FB0490AC
:105ABC0008E0FFF7A3FB0246049BD31A022B01D983
:105ACC00032363E10C4B5B6A03F00203002BF0D061
